:10197A0000A8C0003F065B4F666D7D077F6F0008B9
:10198A0040014148BF86DBCFE6EDFD87FFEF6D3EA4
:06199A0039796E3F3800B0
:0310A200012C001E
:101A04008F2E121B40EF700BFB7A00792E7D01FCA8
:0E1A14001219527D087C007F087E070214E143
:1019A000AB07AA06752F408A308B317532418C33D4
:1019B0008D34121B40EF700BFB7A00792F7D06FCF3
:0419C0001219522284
:1016C500E4FF121756BF01047F08803A7F05121701
:1016D50056BF01047F01802E7F02121756BF0104F9
:1016E5007F0280227F04121756BF01047F038016F4
:1016F5007F01121756BF01047F04800A7F0312176A
:0A17050056BF01057F05121A0422E9
:101A5C00E4FF1217E0BF01057F06121A047F011282
:0B1A6C0017E0BF01057F07121A0422DB
:101AAD00121AD1BF010CE52C70087F09121A0475AA
:031ABD002C462292
:0A1B4B00E52CD394004002152C2273
:101A7700121B7978227C007D007E007F0A1208D035
:0B1A8700AD27AC26AF29AE280219A045
:10167500E52DB4201775251C75261D75271A7528A7
:101685001A7529217B1C7D1B7F1A8030E52DB4211D
:101695001775252175262075271F75281A75291D8B
:1016A5007B1B7D1F7F1E8014E52DB42212E4F525DA
:1016B500F526F527F528752902FBFDFF1219E42209
:10122300121A921219C4121A227F9812189D121AB6
:101233003F7F807E257D007C001215597D07E4FFEA
:10124300121B5EE4F525F526F527F528F529FBFDA8
:10125300FF1219E4752700752800752900E4F52AA3
:10126300F52BFB7A00792D7D01FC1218CE7BFF7ADA
:101273001679C57F071214647BFF7A1A795C7F04A1
:101283001214647BFF7A1A79AD7F061214647BFF14
:101293007A1B794B7F011214647BFF7A1A79777F6B
:1012A300031214647BFF7A1679757F091214641292
:0712B3001B9312185F80FB82
:091B55008B88898C88898F8889AE
:1010A50052007A86860086860086860086860086B9
:0910B500860086860041006F09E7
:03002B00021B872E
:061B870053BCEFD20F3247
:020ACD001535DD
:100ACF00200F03020C76C20F90006EE0B4090040B5
:100ADF0003020C58900AEAF8282873020B31020B14
:100AEF0005020B17020B43020B05020B17020B5AE1
:100AFF00020B05020B17AFBDEFFEADBE7C00E42D60
:100B0F00FFEC3E900070803CAFBDEFFEADBE7C00B1
:100B1F00E42DFFEC3E900072F0A3EFF0751A010286
:100B2F000C5EAFBDEFFEADBE7C00E42DFFEC3E9042
:100B3F0000748010AFBDEFFEADBE7C00E42DFFEC66
:100B4F003E900076F0A3EFF0020C5EAFBDEFFEAD6E
:100B5F00BE7C00E42DFFEC3E900078F0A3EFF09008
:100B6F000078E0FEA3E07807CEC313CE13D8F9A820
:100B7F0035F6C394065013A835E675F003A4247A0E
:100B8F00F582E43400F583E014F090006FE014F088
:100B9F006003020C5E7409F0A835E4F6A835E6FF91
:100BAF00C394064003020C5EEF75F003A4247AF59C
:100BBF0082E43400F583E0C39480502AE6FF75F099
:100BCF0003A4247BF582E43400F583E0D3948040C2
:100BDF0040EF75F003A4247CF582E43400F58374B0
:100BEF0001F0F51B802BA835E6FF75F003A4247BDD
:100BFF00F582E43400F583E0C394805014EF75F070
:100C0F0003A4247CF582E43400F5837402F0751B91
:100C1F0001A835E6FF75F003A4247AF582E43400C9
:100C2F00F583E0FEEF75F003A4247BF582E4340036
:100C3F00F583EEF0E675F003A4247AF582E4340030
:100C4F00F5837486F006020BAB90006E74FFF09084
:100C5F00006EE0D39407400374FFF090006EE00441
:070C6F00F0901B5593F5BC4A
:030C76000535221F
:021AEF001535AB
:091AF100A835A61BE4F51BE6FF75
:031AFA000535228D
:021AFD0015359D
:091AFF00A835A61AE4F51AE6FF69
:031B08000535227E
:10189D008F9D75BC88439720D2AD90004574FFF0A5
:1018AD00A3740AF0A374CDF0A374FFF0A3741AF01F
:1018BD00A374EFF0A374FFF0A3741AF0A374FDF0FA
:0118CD0022F8
:071B79007B017A0079702264
:10175600C3EF64809480403BD3EF6480948550331C
:10176600EFFD3395E0FC90007C75F003ED120ABBAB
:10177600EC75F003A42583F583E0FE90007C75F0FC
:1017860003ED120ABBEC75F003A42583F583E4F0A0
:05179600AF06227F03F5
:01179B00222B
:04192A001535153525
:10192E00121B67A835A60608A607A835E6FE08E628
:0F193E00FF4E600BEF24FFFFEE34FFFE121B7015
:05194D000535053522FF
:1019C40053B1EF43B210121B9CE4F5D975DA49D236
:1019D400DE90003F74FFF0A37419F0A3742AF02280
:0814E1008E228F238C248D253F
:1014E900121B67EF4E7066AF25AE24121B70C3E561
:1014F90023940AE5229400404BE47B18FAF9F8900A
:10150900197A120A9F1209E6C006C007AE22AF2354
:10151900AB07AA06E4F9F8D007D0061209E6AB072B
:10152900AA06AFF9EFFEADE97C00E42DFFEC3ECF52
:101539002BCF3AAD07FCAF03AE02121AC0D2D84383
:0F154900DA018006121B9C53DAFE7F02227F0319
:011558002270
:0C1B3400121B67EF4E7002FF227F01229F
:100FB900E4F5809000ACE0FFB40800505F900FCDDD
:100FC900F8282873020FE5020FEB020FF1020FF761
:100FD900020FFD02100702101102101BC2A3C2A2C8
:100FE9008016C2A3C2A2801AC2A3C2A2801EC2A333
:100FF900C2A28022C2A3D2A2C2A1C2A08020C2A33F
:10100900D2A2C2A1D2A08016C2A3D2A2D2A1C2A04A
:10101900800CC2A3D2A2D2A1D2A08002D2A3C3EFD4
:101029006480948850299000ACE0FF3395E0FE7409
:10103900A32FF58274003EF583E0FF3395E0FE743B
:101049007E2FF58274193EF583E493F580801E9016
:1010590000ACE0FFB408133395E0FE74A32FF582CA
:1010690074003EF583E0F5808003E4F5809000A2EA
:10107900E0FF9000ACE004FEF0D3EF6480F8EE648A
:1010890080984014E0D36480948850047408F02256
:091099009000A1E09000ACF022EF
:101A9200E4F5937594FF5395F043960F90002A74E2
:0B1AA200FFF0A3740FF0A374B9F02252
:091B5E009000A1EFF0A3EDF022CC
:1019E4009000A3EFF0A3EDF0A3EBF0A3E525F0A3A3
:1019F400E526F0A3E527F0A3E528F0A3E529F022E6
:061B8D009000ABEFF02216
:1010BE00011E004900AE9494009494009494004153
:0310CE0000AD1E54
:020DA9001535FE
:100DAB0020B2069000AEE014F020B3069000B1E044
:100DBB0014F02097069000B4E014F09000ADE0140E
:100DCB00F06003020EC9741EF0A835E4F6A835E6F0
:100DDB00FFC3648094834003020EC9EF3395E0FE9A
:100DEB009000AE75F003EF120ABBEE75F003A4256D
:100DFB0083F583E0C3948050399000AF75F003EF17
:100E0B00120ABBEE75F003A42583F583E0D394801F
:100E1B00405AE6FF3395E0FE9000B075F003EF12F9
:100E2B000ABBEE75F003A42583F5837401F0F51E60
:100E3B00803AA835E6FF3395E0FE9000AF75F003DE
:100E4B00EF120ABBEE75F003A42583F583E0C39480
:100E5B008050199000B075F003EF120ABBEE75F0DD
:100E6B0003A42583F5837402F0751E01A835E6FFF4
:100E7B00FD3395E0FC9000AE75F003ED120ABBEC70
:100E8B0075F003A42583F583E0FE9000AF75F003A6
:100E9B00ED120ABBEC75F003A42583F583EEF0EF9E
:100EAB003395E0FE9000AE75F003EF120ABBEE75C2
:0E0EBB00F003A42583F5837494F006020DD88D
:030EC900053522CA
:021B0B0015358E
:091B0D00A835A61EE4F51EE6FF52
:031B160005352270
:101A220090003074FFF0A3741BF0A3740BF09000CD
:0D1A32002D74FFF0A3740DF0A374A9F02231
:1017E000EF600764016003BF0233EFFD3395E0FC57
:1017F0009000B075F003ED120ABBEC75F003A42560
:1018000083F583E0FE9000B075F003ED120ABBECA7
:0F18100075F003A42583F583E4F0AF06227F0370
:01181F0022A6
:1010D1004100000A4100290A41006D0A040E000086
:1010E10000000114004600670000FFFF8FFFC10DE3
:1010F100C105C108C101C10E60240005FF1B9FFF8E
:101101001B9FFF1B9FFF1B9FFF1B9FFF1B9FFF1B26
:101111009FFF1B9FFF1B9FFF1B9FFF1B9FFF1B9F92
:101121006036002AFF1B9FFF1B9FFF1B99FF1B9F20
:10113100FF1B99FF1B9FFF1B99FF1B9FFF1B9FFF1E
:101141001B9FFF1B99FF1B99FF1B99FF1B99FF1BFE
:0A1151009FFF1B9FFF1B9FFF1B9FCA
:011B9F002223
:031B99007F0022A8
:10170F00438E805389F07BE07A2879017800901915
:10171F007A120A9F12179CEFF404F58A7BE07A285D
:10172F007901780090197A120A9F12179CC3E49FCF
:10173F00FFE49EFE74019DFDE49CFC7808120A8B69
:07174F008F8CD28CD2A9227D
:03000B00021623B7
:04162300C0E0C0D093
:10162700D5080A75084C300D020514D20DA20372B5
:10163700045036150AE50A7030850C0AD207300ABD
:1016470017E50D6007150D438F01801D538FFEC2EF
:10165700B5D51615C20A8011050BE50BD3940640C4
:0916670008C203E5136002D2067B
:05167000D0D0D0E032F3
:1015D000300E47C20E90197A120A9F7810120A8BA9
:1015E0008E1C8F1D900003E0FEA3E0FFE4FCFD7B5A
:1015F00019FAF9F812095BC006C007AE1CAF1DABA3
:1016000007AA06E4F9F8D007D00612179C7803124F
:101610000A8B900065EEF0A3EFF0900065E0FEA36A
:02162000E0FFE9
:0116220022A5
:091B6700900067E0FEA3E0FF22FC
:091B7000900067EEF0A3EFF022F3
:101AC00090006BEEF0A3EFF0900069ECF0A3EDF066
:011AD00022F3
:031B9C00C2B422AE
:03003B0002117B34
:10117B00C0E0C083C082C0D075D000C004C005C021
:03118B0006C00794
:10118E0030DF04C2DF807D30DA04C2DA807630D9F7
:10119E003DC2D9AFFBEFFEADEB7C00E42DFFEC3E84
:1011AE0020000E900001F0A3EFF075DB11D200804D
:1011BE0053FE900001E0FCA3E0FDC3EF9DFFEE9C0B
:1011CE00A3F0A3EFF075DB00C200D20E803630D84C
:1011DE0033C2D8900067E07002A3E06022B2B490F0
:1011EE000069E0FEA3E0F5EAEEF5FAA3E0FEA3E067
:1011FE00FF90006AE02FF0900069E03EF08005C29B
:04120E00B453DAFEFD
:10121200D007D006D005D004D0D0D082D083D0E081
:011222003299
:061B930012170FD2AF2271
:1013D9003004047F0180027F00200A047E0180021C
:1013E9007E00EE5F6074E515C395095068300236DA
:1013F900750D01E515131313541FAB17AA18A91975
:10140900F5827583001208F6FFE515540704FEEF0F
:10141900A806088002C333D8FC30D70575160380A7
:101429002F751601802AAB17AA18A91975F002E5BC
:1014390015A4F58285F0831208F6F50DE51575F00A
:1014490002A429F9EA35F0FA9000011208F6F51616
:0A1459000515D20A22C204438F10C9
:011463002266
:100ECC00900000E014F0701F740AF0D20590002915
:100EDC00E014F07012740AF0D20890006DE014F077
:100EEC007005740AF0D20190002AA3E0FAA3E0F98D
:100EFC00120AC790002DA3E0FAA3E0F9120AC790DA
:100F0C000039A3E0FAA3E0F9120AC7900045A3E068
:100F1C00FAA3E0F9120AC7900054A3E0FAA3E0F98F
:100F2C00120AC790005DA3E0FAA3E0F9120AC79079
:100F3C00004BA3E0FAA3E0F9120AC7EF600C900093
:100F4C001DA3E0FAA3E0F9120AC790004EA3E0FA41
:100F5C00A3E0F9120AC7EF600E900020A3E0FAA3F9
:100F6C00E0F9120AC7D20BE512D394004016D51241
:100F7C003030090C900023A3E0FAA3E0F9120AC761
:100F8C00D20C801D900051A3E0FAA3E0F9120AC71D
:100F9C00EF600E900023A3E0FAA3E0F9120AC7D287
:0D0FAC000C900005A3E0FAA3E0F9020AC7CB
:1012BA0090003FA3E0FAA3E0F9120AC7900042A304
:1012CA00E0FAA3E0F9120AC7900033A3E0FAA3E018
:1012DA00F9120AC7900008A3E0FAA3E0F9120AC7B4
:1012EA00900030A3E0FAA3E0F9120AC7EF600C906D
:1012FA000011A3E0FAA3E0F9120AC7900036A3E0AE
:10130A00FAA3E0F9120AC7EF600C900017A3E0FAFB
:10131A00A3E0F9120AC7900048A3E0FAA3E0F91281
:10132A000AC7EF600C90001AA3E0FAA3E0F9120AC8
:10133A00C730060EC206900026A3E0FAA3E0F9120F
:03134A000AC722AD
:1018200090000BA3E0FAA3E0F9120AC790003CA3D2
:10183000E0FAA3E0F9120AC7EF600C900014A3E0ED
:10184000FAA3E0F9120AC7900057A3E0FAA3E0F95F
:0F185000120AC790005AA3E0FAA3E0F9020AC7F0
:1018FF00AF11AE10AD0FAC0E900060120AAF90009A
:10190F0064E514F0E4F511F510F50FF50EF51490EC
:0B191F00000EA3E0FAA3E0F9020AC7E3
:10185F00300705C2071213D9300D05C20D120ECC79
:10186F00300505C2051212BA300805C20812182039
:10187F00300105C2011218FFE5112401F511E435FD
:0E188F0010F510E4350FF50FE4350EF50E22BE
:101464008B228A238924EFB40C005070901477F8EF
:1014740028287302149B0214A00214A50214AA02C1
:1014840014AF0214B40214B90214BE0214C3021439
:10149400C80214CD0214D290000580359000088053
:1014A4003090000B802B90000E802690001180213C
:1014B400900017801C900014801790001A801290DE
:1014C400001D800D90002080089000238003900070
:0D14D40026E522F0A3E523F0A3E524F02295
:071B80007B017A007960226D
:07115B00011F004100B70075
:0D1B270020A409751F019000B77401F02281
:021B1900153580
:091B1B00A835A61FE4F51FE6FF42
:031B240005352262
:101A3F0090003C74FFF0A3741BF0A37419F0900096
:0D1A4F003974FFF0A3741BF0A37427F0227C
:021AD1001535C9
:0A1AD3009000B7E0A835F6FFE4F03C
:031ADD00053522AA
:1011620055008C000000000000000000000000009C
:08117200000001000000000074
:03002300020C7953
:100C7900C0E0C0F0C083C082C0D075D000C000C041
:100C890001C002C003C004C005C006C00730993BBB
:100C9900C299900091E0FEA3E0FFC3900090E09F0D
:100CA90090008FE09E501F90008CE0FBA3E0FAA318
:100CB900E0F9A3E475F00112094585F082F5831284
:100CC90008F6F5998005900093E4F0209803020D49
:100CD9008EC298300B09C20B900099E4F0A3F090F2
:100CE9000097E0FEA3E0FFA3E0FCA3E0FDC39FECB7
:100CF9009E5077900094E0FBA3E0FAA3E0F98D827F
:100D09008C83E59912092390009FE0FEA3E0FFC3BD
:100D1900ED9FEC9E5046900097E0FCA3E0FDEF9D0F
:100D2900EE9C503890009CE0FBA3E0FAA3E0F99018
:100D39000099E0FEA3E0FFF5828E831208F6FD908C
:100D49000094E0FBA3E0FAA3E0F98F828E831208F6
:100D5900F66D600890009974FFF0A3F090009AE096
:100D690004F07006900099E004F0900097E0FEA36B
:100D7900E0FFC390009AE09F900099E09E400690A2
:100D8900009B7401F0D007D006D005D004D003D061
:100D990002D001D000D0D0D082D083D0F0D0E032C0
:021AE0001535BA
:0A1AE20090009BE0A835F6FFE4F049
:031AEC000535229B
:101559008F258E248D238C22759850438E40538E6F
:10156900FE53890FE47B04FAF9F890197A120A9F5D
:101579001209E6AB25AA24A923A8221209E6EFF449
:1015890004F58BE47B04FAF9F890197A120A9F1290
:1015990009E6AB25AA24A923A8221209E6C3E49FD8
:1015A900FFE49EFE74019DFDE49CFC7808120A7814
:1015B9008F8DC2ABD28ED2AC90004E74FFF0A37463
:0715C9001AF0A374E0F02208
:1018CE00900094EBF0A3EAF0A3E9F0A3ECF0A3ED03
:1018DE00F090009FE52AF0A3E52BF090009CE52701
:1018EE00F0A3E528F0A3E529F0D20BE490009BF0DD
:0118FE0022C7
:10195200900093E0701F90008CEBF0A3EAF0A3E9F3
:10196200F0E4A3F0A3F0A3ECF0A3EDF0A37401F074
:08197200D2997F02227F0322BB
:0B1B4000900093E07002FF227F012262
:0300000002134D9B
:0C134D00787FE4F6D8FD7581350213941A
:10080000E709F608DFFA8046E709F208DFFA803EDA
:1008100088828C83E709F0A3DFFA8032E309F608C7
:10082000DFFA8078E309F208DFFA807088828C832F
:10083000E309F0A3DFFA806489828A83E0A3F608E3
:10084000DFFA805889828A83E0A3F208DFFA804CBD
:1008500080D280FA80C680D4806980F28033801094
:1008600080A680EA809A80A880DA80E280CA8033FD
:1008700089828A83ECFAE493A3C8C582C8CCC58375
:10088000CCF0A3C8C582C8CCC583CCDFE9DEE78045
:100890000D89828A83E493A3F608DFF9ECFAA9F0C4
:1008A000EDFB2289828A83ECFAE0A3C8C582C8CC1A
:1008B000C583CCF0A3C8C582C8CCC583CCDFEADE33
:1008C000E880DB89828A83E493A3F208DFF980CC95
:1008D00088F0EF60010E4E60C388F0ED2402B4048E
:1008E0000050B9F582EB2402B4040050AF23234535
:0608F00082239008507302
:1008F600BB010CE58229F582E5833AF583E02250B7
:1009060006E92582F8E622BBFE06E92582F8E22200
:0D091600E58229F582E5833AF583E493221A
:10092300F8BB010DE58229F582E5833AF583E8F00A
:10093300225006E92582C8F622BBFE05E92582C8B6
:02094300F2229E
:10094500A3F8E0C5F025F0F0E58215827002158365
:06095500E0C838F0E822C2
:10095B00E88FF0A4CC8BF0A42CFCE98EF0A42CFC3B
:10096B008AF0EDA42CFCEA8EF0A4CDA8F08BF0A4B9
:10097B002DCC3825F0FDE98FF0A42CCD35F0FCEB18
:10098B008EF0A4FEA9F0EB8FF0A4CFC5F02ECD39DD
:0F099B00FEE43CFCEAA42DCE35F0FDE43CFC224A
:1009AA0075F008758200EF2FFFEE33FECD33CDCC04
:1009BA0033CCC58233C5829BED9AEC99E582984087
:1009CA000CF582EE9BFEED9AFDEC99FC0FD5F0D664
:1009DA00E4CEFBE4CDFAE4CCF9A88222B800C1B98E
:1009EA000059BA002DEC8BF084CFCECDFCE5F0CBCC
:1009FA00F97818EF2FFFEE33FEED33FDEC33FCEB05
:100A0A0033FB10D703994004EB99FB0FD8E5E4F9BF
:100A1A00FA227818EF2FFFEE33FEED33FDEC33FCAC
:100A2A00C933C910D7059BE99A4007EC9BFCE99AA0
:100A3A00F90FD8E0E4C9FAE4CCFB2275F010EF2FE5
:100A4A00FFEE33FEED33FDCC33CCC833C810D707E5
:100A5A009BEC9AE899400AED9BFDEC9AFCE899F820
:0E0A6A000FD5F0DAE4CDFBE4CCFAE4C8F922B3
:10179C00C2D5E830E70FB2D5E4C39BFBE49AFAE478
:1017AC0099F9E498F8EC30E717B2D51217D2120970
:1017BC00E6E4C39BFBE49AFAE499F9E498F8800315
:1017CC001209E630D50DE4C39FFFE49EFEE49DFDB7
:0417DC00E49CFC226B
:100A7800E8600FECC313FCED13FDEE13FEEF13FF5C
:030A8800D8F12280
:100A8B00E86010ECA2E713FCED13FDEE13FEEF1381
:040A9B00FFD8F0226E
:100A9F00E493FC740193FD740293FE740393FF229D
:0C0AAF00ECF0A3EDF0A3EEF0A3EFF022BA
:0C0ABB00A42582F582E5F03583F5832246
:060AC7008A838982E473BA
:10135900021223E493A3F8E493A34003F68001F275
:1013690008DFF48029E493A3F85407240CC8C33395
:10137900C4540F4420C8834004F456800146F6DF64
:10138900E4800B01020408102040809010A2E47E42
:10139900019360BCA3FF543F30E509541FFEE49359
:1013A900A360010ECF54C025E060A840B8E493A320
:1013B900FAE493A3F8E493A3C8C582C8CAC583CA4B
:1013C900F0A3C8C582C8CAC583CADFE9DEE780BE03
:01117A000074
:00000001FF
